:020000040800F2
:10000000F807002079020008E92E0008E92200081C
:10001000E52E0008E1080008A131000800000000FA
:10002000000000000000000000000000F12E0008A9
:10003000E508000800000000ED2E0008F52E00087D
:10004000930200089302000893020008930200083C
:10005000930200089302000893020008930200082C
:10006000930200089302000893020008930200081C
:10007000930200089302000893020008930200080C
:100080009302000893020008930200080000000099
:1000900000000000000000000000000093020008C3
:1000A00093020008930200089302000893020008DC
:1000B000B52F00089302000893020008930200087D
:1000C00093020008930200089302000893020008BC
:1000D0009302000893020008930200080000000049
:1000E0009302000893020008930200080000000039
:1000F0000000000000000000000000009302000863
:100100000000000093020008930200089302000818
:1001100000000000000000000000000000000000DF
:10012000930200089302000893020008930200085B
:100130009302000800000000000000000000000022
:100140000000000000000000000000009302000812
:10015000930200089302000893020008930200082B
:100160009302000893020008000000000000000055
:10017000000000000000000000000000000000007F
:1001800000000000930200080000000000000000D2
:10019000930200089302000800F002F800F05DF8F6
:1001A00014A696E8000CB244B344DA4501D100F03D
:1001B00054F8BAE80F000FA696E83000A5EB040546
:1001C00004EB0607AAEB0704A7F101074FEA151590
:1001D0004FEA3414A4F10104AC4201D300F03DF81D
:1001E00013F0010F18BFFB1A43F0010300F001F8F0
:1001F000DBE71847B4390000D4390000103A24BFB7
:1002000078C878C1FAD8520724BF30C830C144BF7B
:1002100004680C6070470000704700000023002451
:1002200000250026103A28BF78C1FBD8520728BF06
:1002300030C148BF0B607047642900F039817529CF
:1002400000F03681632900F00483002070471FB559
:1002500003F01BFC1FBD10B510BD00F006FB1146DE
:10026000FFF7F5FF02F09EFF00F024FB03B4FFF759
:10027000F2FF03BC00F02CFB094880470948004707
:10028000FEE7FEE7FEE7FEE7FEE7FEE7FEE7FEE746
:10029000FEE7FEE704480549054A064B70470000A3
:1002A000A12F000899010008F8010020F80700209C
:1002B000F8030020F803002053EA020C00F06980E4
:1002C0002DE9F04B4FF00006002B1FBFB3FA83F56A
:1002D00003FA05F424FA05F65E4012BF1643B2FA9B
:1002E00082F502FA05F4C5F120051EBF22FA05FCCD
:1002F00044EA0C04203556EA044C4FEA144418BF73
:10030000641C4FF000084FF00009904271EB030CA1
:1003100039D3002919BFB1FA81F701FA07F6B0FA0B
:1003200080F700FA07F6C7F120071EBF20FA07FC86
:1003300046EA0C062037B6FBF4FCA7EB0507103F96
:1003400007F01F0BCBF120062CFA06F60CFA0BFB7C
:1003500044BFB3460026202FA4BF5E464FF0000BDB
:100360005BEA060C08BF4FF0010B19EB0B0948EBD9
:100370000608ABFB027C06FB02CC0BFB03CCC01BCC
:1003800071EB0C01C1E70B46024641464846BDE809
:10039000F08B13B5084318BF4FF0FF300146AFF3A1
:1003A0000080BDE81C4070470FB41CB5074B06AA7F
:1003B0007B4469460090059800F021FA00206946C8
:1003C00000F030FA1CBC5DF814FB00007104000062
:1003D0000FB41CB50C0007AA009007D04142A142FF
:1003E00002D32044401E01E04FF0FF30074B7B4416
:1003F00069460190069800F002FA0020002C01D016
:10040000009908701CBC5DF814FB00003D0400005E
:1004100070B5044685690068C10601D5302600E044
:100420002026C00707D070BDD4E90121304690478F
:10043000206A401C20626D1EF6D570BD70B5044662
:1004400085690078C00707D170BDD4E9012120205B
:100450009047206A401C20626D1EF6D570BD70B5B5
:100460000C460546012A05D02878800600D5EA69A1
:10047000002302E0012305E05B1C934202D2E05C12
:100480000028F9D1A869E618C01AA861286A18449A
:1004900028622846FFF7BCFF04E0D5E9012114F8E3
:1004A000010B9047B442F8D32846FFF7C7FF70BD51
:1004B0002DE9F0410646002410687529314616A53D
:1004C00010D0AFF30080002802DA404213A507E005
:1004D00031688A0701D512A502E0490704D511A5A4
:1004E000012401E0AFF3008000210A2206F1240775
:1004F00009E0B0FBF2FCB0FBF2F302FB1C00303071
:1005000078541846491C0028F3D123462A46304621
:10051000BDE8F04100F015B9000000002D0000001A
:100520002B000000200000002DE9F05F8946044602
:100530004FF0000ADFF874B1FB44C0F820A0204659
:10054000E1688847002874D0252806D0D4E9012125
:100550009047206A401C2062F1E700265F46204653
:10056000E16888472028054607DB312D05D2781938
:1005700010F8200C08B10643F1E7B00701D526F0CA
:100580000406C4F81CA00027C4F818A02A2D09D01E
:10059000284603F073FA38B304EB8708303DC8F8F7
:1005A000185019E059F8041B204604EB87029161AA
:1005B000E1688847012F054618D1E069002820DA54
:1005C00026F020061DE0D8F8180000EB800005EBAF
:1005D00040003038C8F818002046E16888470546D2
:1005E00003F04CFA0028EED1012F0AD02E2D08D1AD
:1005F0002046E16888477F1C0546022F46F020060A
:10060000C4DBA069002803DA404246F00106A0617D
:10061000F00701D026F010066C2D0BD0682D09D004
:100620004C2D39D06A2D35D0742D35D07A2D33D05C
:1006300016E038E0E1682F4620468847B842054674
:1006400009D16C2F26D04FF48060E1680643204624
:100650008847054604E06C2F1AD04FF4807006439B
:100660000DB3A5F14100192802D8203546F40066E3
:100670004A462946204626604E46FFF7DDFD80B1FA
:1006800001280BD0F61D26F0070000F1080956E7F7
:100690004020E4E78020D8E70020D6E706F10409EF
:1006A0004DE7284652E7206ABDE8F09F6835000014
:1006B00010B5431C02E010F8011B71B18107FAD19B
:1006C0004FF0013202C88C1A8C4314EAC211F9D0DF
:1006D000C01A0A0603D0C01E10BDC01A10BD0A04FD
:1006E00001D0801E10BD0902FCD0401E10BD4FF08D
:1006F000000200B5134694469646203922BFA0E872
:100700000C50A0E80C50B1F12001BFF4F7AF09077D
:1007100028BFA0E80C5048BF0CC05DF804EB89006E
:1007200028BF40F8042B08BF704748BF20F8022BB1
:1007300011F0804F18BF00F8012B704770477047C9
:1007400070472DE9F0470D4699469246044600F160
:1007500024080168880604D5E06921F010012160B1
:1007600000E00120A84201DD471B00E00027A1694D
:100770007A1902EB0900081AA0612078C00602D499
:100780002046FFF745FE002608E0D4E901211AF8CB
:1007900006009047206A401C761C20624E45F4DB20
:1007A0002078C0060AD52046FFF732FE06E0D4E9DD
:1007B000012130209047206A401C2062381EA7F19A
:1007C0000107F4DC07E0D4E9012118F8050090479F
:1007D000206A401C2062281EA5F10105F3DC20469A
:1007E000FFF72CFE2078000602D50220BDE8F08736
:1007F0000120FBE701694A1C02610878704700B5D7
:100800008FB0CDE901310021059105497944CDE949
:10081000031011466846FFF787FE0FB000BD0000C9
:10082000E5FFFFFF0A6802F8010B0A607047D1E993
:1008300000239A4202D2531C0B601070704710B50F
:10084000436913B1AFF3008001E0FFF708FE012018
:1008500010BD127800F124010A7000224A700122B2
:10086000EDE711684FF0FF32E9E7754600F02CF82C
:10087000AE4605006946534620F00700854618B08D
:1008800020B5FFF707FDBDE820404FF000064FF010
:1008900000074FF000084FF0000BAC46ACE8C00971
:1008A000ACE8C009ACE8C009ACE8C00921F0070118
:1008B0008D46704710B50446AFF300802046BDE872
:1008C0001040FFF7D3BC00000048704748000020EC
:1008D00001491820ABBEFEE7260002007047000069
:1008E000FEE7000070470000F0B581B000220092E2
:1008F00090F83C20012A03D1022001B0F0BD00BFD6
:100900000F6801231FFA87FC80F83C304FEA4C0344
:1009100007EB470213FA87F31024092F88BFA3F1CE
:100920001E0288BF0C2403684FF0070E1E590EFAF2
:1009300002F5AE431E518E681D5906FA02F22A4393
:100940001A514968062907D801EB81014A1F194647
:1009500051F8345F0FE000BF0C2901EB810105D88D
:10096000A1F12302194651F8305F04E0A1F14102E0
:10097000194651F82C5F1F26964025EA06060E60A0
:100980000CFA02FE42F2043C0A68C4F2010CACF517
:10099000417642EA0E02B3420A6005D0002180F897
:1009A0003C10002001B0F0BD1221112FC1F2000156
:1009B00018BF8F423AD1DCF800208F4222F4800227
:1009C000CCF80020DCF8002042F40002CCF8002033
:1009D000E4D140F24001C2F2000109684DF68362A1
:1009E000C4F21B32A1FB0212910C01EB8101490000
:1009F000009100990029D1D0009901390091009906
:100A00000029CBD000990139009100990029C5D067
:100A100000990139009100990029BFD0009901394E
:100A2000009100990029E7D1B8E700BF122FB5D196
:100A3000DCF8001021F40001CCF80010DCF8001004
:100A400041F48001CCF80010A8E700000068C06CF9
:100A500070470000002804BF0120704710B5016CEA
:100A600000293DD0016CC90645D4016C41F2021247
:100A70009143023142F204320164C4F2010211686E
:100A800021F440311160136890E812102343D0F82C
:100A900010E013604A68012422F480724A604A68B8
:100AA000C0F6007442EA0E224A604A6822F04072A0
:100AB0004A604A6842EA0C024A608A6822F400628C
:100AC0008A60C2688B681A438A60826A8B68A24215
:100AD00023F070638B608B6810D123F0405216E0D6
:100AE000044600F065F820460021616484F83C105B
:100AF000016CC906B9D5012153E000BF1A438A60D1
:100B00008A6822F040528A60C26A8B681A438A60FF
:100B10008A6822F002028A608A68037E90F8204088
:100B200042EA43028A604A6884B142F400624A6041
:100B30004A684EF2000322F460424A60426ACFF6ED
:100B4000FF734C6803EB4232224301E022F400625F
:100B50004A60CA6A40F2000C22F47002CA62C36999
:100B60004269CFF6F07CCC6A0CEB03532343CB6293
:100B70008B6823F400738B6090F830308C6844EA03
:100B800043238B608B6823F480638B608B6843EA1C
:100B900082228A6000214164026C012363F3010216
:100BA0000264002280F83C20BDE8104008467047EF
:100BB00080B586B042F200010068C4F20101002253
:100BC00088420592CDE903220292019202D006B03A
:100BD00080BD00BF43F630000092C4F202004369BA
:100BE00043F480734361436903F480730093009B73
:100BF0000092036843F001030360006800F0010005
:100C0000009000980320CDE9010001F5604001A9A2
:100C1000039200F039F906B080BD000070B50446BB
:100C200000680D468268520544BF80685FEAC05084
:100C300038D400F005FA21680A68920749D40646BC
:100C4000681C3CD0DDB90868800721D5086880079A
:100C50003FD4086880071BD50868800739D4086826
:100C6000800715D50868800733D4086880070FD53A
:100C700008688007E7D52CE00868800729D400F0D1
:100C8000DFF9801B2168A842F6D908688007F3D4F1
:100C9000206C40F004002064002084F83C00032015
:100CA00070BD00BF206C40F020002064002084F85C
:100CB0003C00012070BD00BF0868800709D40868A7
:100CC000800706D4086880075CBF08685FEA807008
:100CD000F2D56FF012000860206C40F400702064C0
:100CE000886810F0405F01D0002070BD207E002891
:100CF000FAD1C86A10F4700F02D088684005F3D4A6
:100D0000206C20F480702064206CC004ECD4206C33
:100D100040F001002064002070BD000010B581B0DB
:100D20000021009190F83C10012903D1022001B06C
:100D300010BD00BF0468012180F83C10214651F825
:100D4000083FDB0729D10B684DF6836243F00103AE
:100D50000B6040F24003C2F200031B68C4F21B3276
:100D6000A3FB02239A0C02EB42020092009AA2B16A
:100D7000009A013A0092009A7AB1009A013A0092E0
:100D8000009A52B1009A013A0092009A2AB1009A50
:100D9000013A0092009A002AEAD10A68036CD2074D
:100DA0000CD143F01001016400F1440101200A68F4
:100DB00010430860002001B010BD00BF40F2017276
:100DC00023EA020202F5807202646268520504D5C9
:100DD000026C012363F30D320264026C4FF0000CCD
:100DE0000023D20444BF426C22F0060342F2000EFC
:100DF000436480F83CC06FF02200C4F2010E206012
:100E0000DEF80403C00609D074450BD1DEF80800F3
:100E100010F0405F06D14FF08040C8E7086810F03E
:100E2000405FF8D0002001B010BD000090F83C10E9
:100E3000012904BF0220704701688A6822F001027C
:100E40008A608968C90705D1016C41F2011291439A
:100E500001310164002180F83C100020704700003F
:100E6000B0B5044600F0ECF8054640F23800C2F296
:100E700000000078611C18BF044400BF00F0E0F8D7
:100E8000401BA042FAD3B0BD2DE9F04F83B000F172
:100E9000200200F13E4741F20005009207F1FF7782
:100EA000C4F2020507224FEAB726A84208BF04226F
:100EB00000254FF000084FF00009042E38BF4FEA1C
:100EC000B72201920AE000BF09F1010908F1020806
:100ED000B9F1100F05F1040500F0A2800F6801229E
:100EE00002FA09FE17EA0E0AEED0D1F804C0032276
:100EF0000CF003077E1E02FA08F4012E6FEA040BC1
:100F000012D88468CE6804EA0B0406FA08F6344363
:100F10008460446824EA0E06CCF3001404FA09F451
:100F20002643466004E000BF032F01D103271EE0E3
:100F3000C6688C6806EA0B0604FA08F42643022FFA
:100F4000C66014D16FF00302009E02EA590756F8FA
:100F500007C005F01C040F220B69A2402CEA020214
:100F6000A3401A43F251D1F804C00CF00307026801
:100F700007FA08F302EA0B021A431CF4403F02602E
:100F8000A2D0002243F644030292C4F202031A687C
:100F900043F6004442F480421A601A68C4F2010425
:100FA00002F480420292029A29F003024FF6084CA2
:100FB0002244CFF6FF7C52F80C3005F00C070F26C8
:100FC000BE40B343019E06FA07F73B4342F80C309C
:100FD000A2684B6842EA0A0743F60C4CDE0258BF8F
:100FE00022EA0A07A760C4F2010CDCF800209E0286
:100FF00042EA0A0758BF22EA0A07CCF80070626882
:101000009E0342EA0A0758BF22EA0A07676022687D
:10101000DB0342EA0A0758BF22EA0A07276053E7C0
:1010200003B0BDE8F08F00000069084018BF012040
:1010300070470000002A08BF090481617047000062
:1010400040F2F410C2F2000000687047002804BFAC
:1010500001207047F0B581B0044690F83D0028B9F2
:10106000002084F83C00204600F090F9242084F809
:101070003D002068016821F001010160016841F430
:1010800000410160016821F40041016000F026FB8D
:10109000636848F2A16CC0F2010C40F60011C0F286
:1010A0003D0163453CBF48F28041C0F21E018842C9
:1010B00002D2012001B0F0BD4DF68361C4F21B31B4
:1010C000A0FB01122168970CD1F804E04FF496764A
:1010D0002EF03F0545EA92454D60774348F63816B5
:1010E0000D6AC0F24106A7FB067625F03F0763456F
:1010F00038BF960C721C3A430A62CA6948F2A0666D
:101100004CF6FF77C0F20106B34222EA07020BD881
:1011100001385B00B0FBF3F001306FF31F3004289F
:1011200098BF04201BE000BFA768013857B11927FA
:101130007B43B0FBF3F001306FF31F3070B100F56B
:10114000804007E003EB4303B0FBF3F001306FF3A3
:101150001F3018B100F5004001E000BF012010432E
:10116000C8610868D4E9072320F0C0001043184381
:101170000860886848F2FF3204F10C0790438CCF76
:1011800018431043A6698860C86820F0FF00384300
:101190003043C860086840F001000860002020214A
:1011A000206484F83D10206384F83E0001B0F0BD57
:1011B0002DE9F04383B01E46174689460446FFF7E3
:1011C0003FFF94F83D10202924D10546206800BF38
:1011D000816989071AD5FFF733FF411B20681A2957
:1011E000F6D381698907F3D500202021206384F894
:1011F0003D1084F83E00216C41F02001216484F808
:101200003C00022003B0BDE8F08300BF94F83C101E
:10121000012903D1022003B0BDE8F083012184F845
:101220003C100168C90703D1016841F00101016068
:10123000016840F2020821F400610160212184F874
:101240003D10102184F83E100021216467626685FC
:10125000618DC0F201082185A8F10211E162E16A05
:101260000A9E11F5803F18BF01291DD1016841F484
:101270008071016020464FF0011100223346009535
:1012800001F092F850B120680068C00544BF4FF4E7
:1012900000702064012003B0BDE8F0832069B0F540
:1012A000804F07D1FE2015E00829DFD0216B1229DD
:1012B000DCD0DFE7062000EAD9102168F0300861B1
:1012C00008F10601204632462B4601F053F900286A
:1012D000E0D1FF20216800EA09000861204641466C
:1012E00032462B4601F046F90028D3D10020029067
:1012F00020684169029180690290029806E000BF6F
:10130000204631462A4600F0F1FF18BB208D68B315
:10131000204631462A4601F099F9D8B9606A216819
:10132000024612F8013B0B616262628D013A6285EE
:10133000228D531E23854F697F07E1D51B04DFD023
:10134000437802300B616062608D01386085901EC9
:101350002085D5E7206C04289CD12068016841F4E1
:1013600000710160012003B0BDE8F08320680168CE
:1013700041F400710160202084F83D00002084F8D1
:101380003E0084F83C0003B0BDE8F083B0B586B001
:1013900045F200410068C4F200010024884205942F
:1013A000CDE903440294019402D006B0B0BD00BF61
:1013B00043F630050094C4F20205286840F00200AC
:1013C0002860286800F00200009000984FF44070F8
:1013D0000190122002900120039003200490042029
:1013E000059001F5D83001A9FFF74EFD009428695A
:1013F00040F400102861286900F400100090009863
:1014000006B0B0BD40F2380040F2F411C2F2000064
:10141000C2F2000100780A681044086070470000BA
:1014200080B543F60040C4F20200016841F4007147
:101430000160016841F480610160016841F48071DC
:101440000160032000F088F8002000F005F800F0AB
:1014500027F8002080BD000070B540F23806C2F2C7
:10146000000640F240013278C2F200014FF47A7374
:101470000968B3FBF2F20446B1FBF2F1084600F052
:1014800063FB0F2C4FF0010508D838B94FF0FF303F
:1014900021460022002500F033F87460284670BD14
:1014A00082B0002043F640010190C4F202014A6874
:1014B00042F480424A604A6802F480420192019AF2
:1014C0000090086840F080500860086800F0805084
:1014D00000900098072002B000F03EB8002848BFF6
:1014E000704700F01F01012202FA01F11C2202EAFA
:1014F000D0004EF20012CEF2000281507047000080
:1015000010B54EF60C5CCEF2000CDCF80030C3F3E4
:10151000022E8EF00704042C28BF0424BEF103031E
:101520004FF0FF3E0EFA04F438BF0023A143994068
:101530000EFA03F39A43114300F00F0200F16043E7
:101540000901043A03F564436244002848BF02F1EC
:101550000C03197010BD00004EF60C51CEF20001C4
:101560000A684FF6FF031A4060F30A2242F08060D7
:1015700040F0FD7008607047002804BF01207047EC
:101580002DE9F04143F60808C4F202080446D8F8F1
:10159000F8030D4600F00700814207D988F8F85398
:1015A000D8F8F80300F00700A84277D12068810737
:1015B00017D5410705D5D8F8001041F4E051C8F817
:1015C0000010010705D5D8F8001041F46041C8F8B3
:1015D0000010D8F80010A26821F0F0011143C8F8FB
:1015E0000010C00740D1D8F8F80300F0070085428A
:1015F00007D288F8F853D8F8F80300F00700A8429B
:101600004CD12068410707D5D8F80010E26821F4D2
:10161000E0511143C8F80010000708D5D8F80000C1
:10162000216920F4604040EAC100C8F8000000F0E1
:101630007DF8D8F8001043F6E022C1F30311C0F69C
:101640000002515C40F2400220FA01F140F23C00FD
:10165000C2F200000068C2F200021160FFF7FCFE57
:101660000020BDE8F08100BF6068811E022907D21A
:1016700058F8081C89015CBF0120BDE8F08111E029
:10168000012807D158F8081C89035CBF0120BDE878
:10169000F08107E058F8081C890703D40120BDE851
:1016A000F08100BFD8F8001021F003010843C8F80A
:1016B0000000FFF7C5FC064641F28837D8F8000065
:1016C000616800F00C00B0EB810F8CD0FFF7B8FC24
:1016D000801BB842F2D90320BDE8F08140F24000FF
:1016E00043F60801C2F20000C4F202010068096872
:1016F00043F6F022C1F38221C0F60002515CC840DB
:101700007047000040F2400043F60801C2F20000BA
:10171000C4F202010068096843F6F022C1F34231C5
:10172000C0F60002515CC8407047000010B543F697
:101730000404C4F202046168C1F3810142F2004072
:10174000C0F2F400DFE801F002040A0210BD00BF9D
:1017500041F20020C0F27A0010BD00BF216801F004
:101760003F02216823684902C3F3881106D4A1FB14
:1017700000010023FEF7A0FD07E000BF41F20020BA
:10178000C0F27A004843B0FBF2F021680222C1F3B4
:10179000014102EB4101B0FBF1F010BD002804BF94
:1017A000012070472DE9F04182B00446007843F6ED
:1017B0000006C007C4F202060CD0B06800F00C00AE
:1017C000042840F081803068800303D560680028D9
:1017D00000F06881207880071BD5B06810F00C0FEE
:1017E00009D0B06800F00C00082840F087807068CD
:1017F000400200F183803068800703D5E06801284B
:1018000040F050813068216920F0F80040EAC100C2
:1018100030602078000713D4207840072AD4A569C7
:10182000002D00F03A81B06800F00C00082840F06C
:10183000A580012D40F00E81012002B0BDE8F081AD
:101840006069002800F082800020C4F24720012156
:10185000C0F8801EFFF7F4FB054600BF706F8007DD
:10186000DAD4FFF7EDFB401B0228F7D9032002B0C2
:10187000BDE8F081306C5FEAC0080AD40020019016
:10188000306C40F080503064306C00F0805001903B
:10189000019847F20007C4F200073868C00547D432
:1018A000386840F480703860FFF7CAFB054600BF17
:1018B0003868C0053CD4FFF7C3FB401B0228F7D9AA
:1018C000032002B0BDE8F081B06800F00C000828E9
:1018D00003D1706840023FF576AF61683068B1F5BA
:1018E000803F07D0B1F5A02F40F09A8040F48020CF
:1018F0003060306840F4803030609AE0E068002862
:1019000040F20000C4F247205CD001210160FFF7E3
:1019100097FB0546306880073FF574AFFFF790FBF3
:10192000401B0228F6D9032002B0BDE8F08100BFB9
:10193000A168306F012905D0052955D140F0040078
:101940003067306F40F00100306756E00020C4F28D
:1019500047200021C0F8801EFFF772FB054600BF3C
:10196000706F80077FF558AFFFF76AFB401B0228B6
:10197000F6D9032002B0BDE8F08100BF0027C4F211
:10198000472700203866FFF75BFB022D05460DD187
:101990003068800140F18A80FFF752FB401B02282B
:1019A0004FF00300F4D902B0BDE8F0813068800147
:1019B00073D5FFF745FB401B02284FF00300F5D914
:1019C000F1E700BF00210160FFF73AFB054600BFC9
:1019D000306880077FF51DAFFFF732FB401B022800
:1019E0004FF00300F4D9DEE720F001003067306FDC
:1019F000002920F0040030677AD0FFF721FB05466C
:101A000041F28837306F800700F18480FFF718FBC0
:101A1000401BB842F6D9032002B0BDE8F08100BFF8
:101A200020F4803030603068002920F4802030605D
:101A30007AD0FFF705FB0546306880033FF5CAAE54
:101A4000FFF7FEFA401B6428F6D9032002B0BDE878
:101A5000F08100BF7068E16900F480028A4221D100
:101A6000216A00F03F028A421CD147F6C071626AC7
:101A70000140B1EB821F15D1A16A4FF6FF73C90374
:101A8000994300F44032A1F580318A420AD1E16ADB
:101A900000F07060B0EB016F04D1002002B0BDE82F
:101AA000F08100BF012002B0BDE8F08104F11C0507
:101AB0002FCD084340EA8210D9034FF6FF729143BD
:101AC000A1F5803140EA0560084370600120386666
:101AD000FFF7B6FA044600BF30688001DDD4FFF797
:101AE000AFFA001B02284FF00300F5D95BE700BFF7
:101AF000FFF7A6FA054641F2883700BF306F80072E
:101B000008D5FFF79DFA401BB8424FF00300F5D906
:101B100049E700BFB8F1000F3FF581AE306C20F00F
:101B2000805030647BE600BFFFF78AFA054600BFAD
:101B3000306880037FF54EAEFFF782FA401B6428C1
:101B40004FF00300F4D92EE7411E0020B0EB116FD7
:101B50001CBF012070474EF21002CEF2000251600D
:101B60004EF62351CEF20001F0230B700721906056
:101B700011607047704700007047000090F83C20EB
:101B8000012A4FF0020241D010B580F83D200268D2
:101B9000D2F804E0D2F808C00C682EF0700323439A
:101BA00040F6FF34C4F20004A242536010DCB2F1EC
:101BB000804F1ED040F20043C4F200039A4218D076
:101BC00040F60003C4F200039A4212D016E000BFB0
:101BD00040F60043C4F200039A420AD044F20003E4
:101BE000C4F201039A4204D00023C4F201039A42D2
:101BF00004D149682CF0800319439160012100222F
:101C000080F83D1080F83C20BDE810401046704739
:101C1000002804BF0120704710B5044690F83D002D
:101C200028B9002084F83C00204600F01FF802206C
:101C300084F83D002068211D01F0C2F9012084F8DC
:101C4000460084F83E0084F83F0084F8400084F8A1
:101C5000410084F8420084F8430084F8440084F88A
:101C6000450084F83D00002010BD00000068B0F180
:101C7000804F18BF704780B582B00020019043F6B6
:101C80004000C4F202000168002241F0010101603D
:101C90000068002100F00100019001981C20FFF76E
:101CA0002FFC1C2002B0BDE88040FFF717BC0000ED
:101CB00090F83D1001291CBF01207047022180F8D7
:101CC0003D10006840F6FF32C168C4F20002904245
:101CD00041F00101C1600FDCB0F1804F1DD040F236
:101CE0000041C4F20001884217D040F60001C4F25E
:101CF0000001884211D017E040F60041C4F2000113
:101D000088420AD044F20001C4F20101884204D0A2
:101D10000021C4F20101884206D1816801F0070167
:101D2000062904BF00207047016841F001010160ED
:101D30000020704790F83C20012A4FF002026CD03E
:101D400080B580F83D20D0F800C04FF67772DCF8FF
:101D5000083023EA0202CCF808200B684F2B29DC5C
:101D60001F2B45DD202B46D0302B44D0402B40F09C
:101D7000AF80D1F804E0C968DCF82030DCF820201E
:101D800022F00102CCF82020DCF8182022F0F0022A
:101D900042EA011123F00A0242EA0E02CCF81810BE
:101DA000CCF82020DCF8081041F0470121F0300188
:101DB00028E000BF6F2B33DDB3F5005F74D0B3F5BF
:101DC000805F21D0702B40F08380D1E901E3C968A6
:101DD000DCF8082043EA0E0322F47F4243EA0121A3
:101DE0001143CCF80810DCF8081041F0770109E045
:101DF0000BB1102B6CD1DCF8081021F070011943E5
:101E000041F00701CCF808100022012180F83D10B4
:101E1000002180F83C10BDE880401046704700BFAC
:101E2000502B21D0602B53D1D1F804E0C968DCF8E5
:101E30002030DCF8202022F01002CCF82020DCF842
:101E4000182022F4704242EA013123F0A00242EA53
:101E50000E12CCF81810CCF82020DCF8081041F055
:101E6000670121F01001CDE7D1F804E0C968DCF882
:101E70002030DCF8202022F00102CCF82020DCF811
:101E8000182022F0F00242EA011123F00A0242EA8D
:101E90000E02CCF81810CCF82020DCF8081041F025
:101EA000570121F02001ADE7D1E901E3C968DCF871
:101EB000082043EA0E0322F47F4243EA0121114342
:101EC000CCF80810DCF8081041F480419AE700BF14
:101ED00001229AE77047000070B504460068C568A3
:101EE0000669B10716D515F0020113D06FF0020193
:101EF0000161012121778069800703D02046FFF727
:101F0000E9FF05E0204600F08FF8204600F08EF84B
:101F100000202077700719D515F0040016D020682E
:101F20006FF00401016102212177806910F4407F84
:101F300004D02046FFF7CEFF06E000BF204600F0A9
:101F400073F8204600F072F800202077300717D58C
:101F500015F0080014D020686FF008010161042119
:101F60002177C069800703D02046FFF7B3FF05E063
:101F7000204600F059F8204600F058F8002020775D
:101F8000F00619D515F0100016D020686FF010017A
:101F9000016108212177C06910F4407F04D02046F8
:101FA000FFF798FF06E000BF204600F03DF820460E
:101FB00000F03CF800202077F00718BF15F0010072
:101FC00002D1300609D412E020686FF001010161EE
:101FD000204600F02DF8300609D515F0800006D017
:101FE00020686FF0800101612046FFF7C3FD700695
:101FF00009D515F0400006D020686FF0400101615E
:10200000204600F03BF8B00658BF70BD15F0200028
:1020100008D021686FF0200220460A61BDE87040B8
:10202000FFF7AABD70BD00007047000070470000B8
:102030000068B0F1804F18BF7047B0B540F2A804F7
:10204000C2F200042078012808D140F23005C2F223
:102050000005686830B1686801386860BDE8B04064
:10206000704700BF032020700220E070FEF7E8FFF9
:10207000A06101202870BDE8B040704770470000A3
:10208000002804BF0120704710B5044690F84100B5
:1020900028B9002084F84000204600F021F82420D0
:1020A00084F841002068C16821F40051C1602046D5
:1020B00001F002F82068016921F490410161416951
:1020C00021F02A014161C16841F40051C160002042
:1020D0002021606484F8411084F84210606310BDD0
:1020E00080B586B044F200410068C4F200010022CD
:1020F00088420592CDE903220292019202D006B0F5
:1021000080BD00BF43F630000092C4F202000369B4
:1021100043F400330361036903F400330093009B2D
:102120000092036843F001030360006800F00100BF
:10213000009000980C2001900220CDE902020320BB
:1021400004900720059001F5DE3001A9FEF79CFE02
:1021500006B080BD2DE9F04381B0044690F84100FF
:10216000202809D100294FF0010018BF002A07D10B
:1021700001B0BDE8F08300BF022001B0BDE8F083EC
:102180000020606421201D460E4684F84100174659
:10219000FEF756FFA784E784A1688146B1F5805F0A
:1021A00002D1206900285DD037460020E28C2168EA
:1021B000002A5DD06A1C24D0002D4AD0804600BF82
:1021C0000868000608D4FEF73BFFA0EB0900A84210
:1021D0007AD82168C868F3E717B117F8010B04E053
:1021E00038F8020B00276FF35F204860E08C01385D
:1021F000E084E08C0028E3D13AE000BF0A681206D0
:1022000009D40A68120606D40A6812065CBF0A6876
:102210005FEA0262F2D51FB117F8012B05E000BF9B
:1022200030F8022B00276FF35F224A60E28C013AFC
:10223000E284E28C002AE4D11AE000BF30F8022BDD
:1022400000276FF35F224A60E28C013AE284E28C5D
:1022500072B10A68120635D5002FEFD017F8012B9E
:10226000F1E700BF00273046E28C2168002AA1D1A7
:10227000086840061ED42DB3681C14D108684006B7
:102280002AD40868400627D40868400624D4086881
:1022900040064FF00000F1D50DE000BF2068C16896
:1022A0000068400618D4FEF7CBFEA0EB0900A84258
:1022B000F4D909E00020202184F8411001B0BDE8E4
:1022C000F08300BFFEF7BCFE0320202184F84110FC
:1022D00001B0BDE8F08300BF0020202184F8411048
:1022E00001B0BDE8F0830000FEE7000070B50368B0
:1022F000044653F8140F400711D40E46481C29D049
:1023000086BB00BF1868400527D4FEF799FE2368F6
:1023100053F8140F400737D518684007F2D500204E
:1023200070BD00BF18684007F9D41868400514D480
:1023300018684007F3D4186840050ED418684007A1
:10234000EDD41868400508D4186840074FF0000025
:1023500048BF70BD18684005E4D56FF48060186010
:10236000042012E0154603E053F8140F4007D6D4BA
:1023700018684005F1D4FEF763FE401B2368B042A5
:10238000F2D958694007EFD4202000212022216390
:1023900084F83D2084F83E10226C10432064012014
:1023A00084F83C1070BD00002DE9F041054600683E
:1023B0001E46144601F47F0201338FB242D0DDF88D
:1023C0001880B2F5803F40F0878040693840C01BDC
:1023D000B0FA80F04009844240F0C8804EB924E051
:1023E00040693840C01BB0FA80F04009844240F098
:1023F000BD80FEF725FEA0EB08012868B142EFD9A9
:1024000041693940C91BB1FA81F149098C42E7D1D0
:102410009BE000BF40693840C01BB0FA80F0400923
:1024200084424FF0000040F0A280FEF709FE2868C9
:1024300041693940C91BB1FA81F149098C42E9D19E
:1024400083E000BFB2F5803F24D100BF416939402D
:10245000C91BB1FA81F149098C4240F0878041697A
:102460003940C91BB1FA81F149098C4240F07E80A4
:1024700041693940C91BB1FA81F149098C4275D1D2
:1024800041693940C91BB1FA81F149098C42DDD05B
:102490006CE000BF81693940C91BB1FA81F149097B
:1024A0008C4263D181693940C91BB1FA81F1490974
:1024B0008C425BD181693940C91BB1FA81F149096C
:1024C0008C4253D181693940C91BB1FA81F1490964
:1024D0008C42DFD04AE000BF80693840C01BB0FAB0
:1024E00080F04009844241D146B923E080693840F8
:1024F000C01BB0FA80F04009844237D1FEF7A0FD3E
:10250000A0EB08012868B142F0D981693940C91BA4
:10251000B1FA81F149098C42E8D116E0806938406E
:10252000C01BB0FA80F0400984424FF0000018BF91
:10253000BDE8F081FEF784FD286881693940C91B38
:10254000B1FA81F149098C42E8D1002020212863A9
:1025500085F83D1085F83E00296C41F02001296482
:1025600085F83C000120BDE8F08100BF0020BDE8F7
:10257000F0810000F0B581B0044600681D46436953
:102580008FB203EA0701B94202D1002001B0F0BDC9
:102590004169164601323CD0490512D47EB300BFD2
:1025A000FEF74EFD411B2068B14203D94169394015
:1025B000B9422BD141693940B942E6D04169490558
:1025C000EED5016841F4007101606FF480614161F2
:1025D000042000212022216384F83D2084F83E104D
:1025E000226C1043206484F83C10012001B0F0BD3F
:1025F00041693940B942C8D041694905E1D4FEF783
:102600001FFD206841693940B942F1D02020E0E740
:1026100041694905D5D441693940B942B5D04169CC
:102620004905CED441693940B942AED04169490526
:10263000C7D441693940B942A7D041694905C0D4DE
:1026400041693940B942E3D19FE7000070B50368A2
:10265000044653F8140F000611D40E46481C29D026
:1026600086BB00BF1868400527D4FEF7E9FC236845
:1026700053F8140F000637D518680006F2D500206D
:1026800070BD00BF18680006F9D41868400514D45E
:1026900018680006F3D4186840050ED418680006C0
:1026A000EDD41868400508D4186800064FF0000003
:1026B00048BF70BD18684005E4D56FF480601860AD
:1026C000042012E0154603E053F8140F0006D6D498
:1026D00018684005F1D4FEF7B3FC401B2368B042F4
:1026E000F2D958690006EFD420200021202221636E
:1026F00084F83D2084F83E10226C104320640120B1
:1027000084F83C1070BD000010B540F20004C2F225
:10271000000420684FF480510122FEF78BFC6068B2
:102720004FF400510122FEF785FCA0684FF4804170
:102730000122FEF77FFCE0684FF400410122FEF722
:1027400079FC40F2AC10C2F2000004A11C224FF44C
:102750007A73BDE81040FFF7FDBC00BF4B65797090
:10276000616420496E6974202D204750494F2042F2
:102770002070696E730D0A002DE9F04F8FB040F2A2
:102780000005C2F2000528684FF4805100224FF482
:1027900080580027FEF74EFC01200124FEF760FB65
:1027A0002E4656F8100F0121FEF73EFC002800F0DF
:1027B000E9802E4656F8140F02210224FEF734FC5D
:1027C000002800F0E3802E4656F8180F0421042458
:1027D000FEF72AFC002800F0DD802E4656F81C0F7C
:1027E0004FF480614FF48064FEF71EFC002800F077
:1027F000D58028684FF4805101220127FEF71AFC8A
:10280000A94659F8040F4FF4005100224FF4005824
:102810004FF0000AFEF70EFC0120FEF721FB2E46CA
:1028200056F8100F0121FEF7FFFB002800F0EC80A6
:102830002E4656F8140F02210224FEF7F5FB00285D
:1028400000F0E4802E4656F8180F04210424FEF709
:10285000EBFB002800F0E2802E4656F81C0F4FF4E8
:1028600080614FF48064FEF7DFFB002800F0DC801D
:1028700068684FF4005101220124FEF7DBFBA946F2
:1028800059F8080F4FF4804100224FF480484FF070
:10289000000AFEF7CFFB0120FEF7E2FA2E4656F8BB
:1028A000100F0121FEF7C0FB002800F0C5802E4666
:1028B00056F8140F02210227FEF7B6FB002800F09D
:1028C000BD802E4656F8180F04210424FEF7ACFBF9
:1028D000002800F0BB802E4656F81C0F4FF4806194
:1028E0004FF48064FEF7A0FB002800F0B780A868D2
:1028F0004FF4804101220124FEF79CFBA94659F8C0
:102900000C0F4FF4004100224FF400484FF0000A32
:10291000FEF790FB0120FEF7A3FA2E4656F8100FA3
:102920000121FEF781FB002800F0A0802E4656F81A
:10293000140F02210224FEF777FB002800F0988094
:102940002E4656F8180F04210424FEF76DFB0028CC
:1029500000F094802E4656F81C0F4FF480614FF41F
:102960008064FEF761FB002800F09080E8684FF477
:1029700000410122FEF75EFB4FF0000B58460FB0FE
:10298000BDE8F08FA9464FF0000A0DE04FF0010AB4
:1029900006E000BF4FF0020A02E000BF4FF0030A5A
:1029A0004FF480580027A94605EB8700504490F863
:1029B00020B07B1C0DF10A070AF1010537A138464A
:1029C0005A460095FDF7F0FC3846FDF771FE82B2DD
:1029D00040F2AC10C2F2000039464FF47A73FFF7B0
:1029E000B9FB1420FEF73CFA30682146FEF71CFBC9
:1029F0000028F9D0D9F8000041460122FEF71AFB61
:102A000058460FB0BDE8F08F0124CDE7A6F11009BC
:102A10004FF4005801274FF0010AC5E7A6F1140949
:102A20004FF0020A04E000BFA6F118094FF0030AB4
:102A30004FF400580127B7E70227B5E7A6F10C09C4
:102A40004FF0010A4FF480480224ADE7A6F11009C7
:102A50004FF4804802274FF0020AA5E7A6F11409B7
:102A60004FF0030A4FF4804802279DE703279BE7B6
:102A7000A6F108094FF0010A04E000BFA6F10C0915
:102A80004FF0020A4FF4004803278DE7A6F1100922
:102A90004FF4004803274FF0030A85E74B65792080
:102AA000707265737365643A20256320285225642B
:102AB0002C432564290D0A0070B582B040F25814E9
:102AC0000C20C2F200040DF106058DF806004FF04F
:102AD000FF3620464E212A4601230096FEF768FB6A
:102AE00008208DF8060020464E212A460123009634
:102AF000FEF75EFB1C200DF107058DF80700204650
:102B00004E212A4601230096FEF752FB18208DF82D
:102B1000070020464E212A4601230096FEF748FB77
:102B20000220FEF79DF902B070BD00002DE9F047CC
:102B300086B03220FEF794F940F25814C2F2000435
:102B40000DF10A054FF034084FF0FF3620464E21B4
:102B50002A4601238DF80A800096FEF729FB3027CC
:102B600020464E212A4601238DF80A700096FEF772
:102B70001FFB0520FEF774F90DF10B0520464E21D1
:102B80002A4601238DF80B800096FEF711FB2046A4
:102B90004E212A4601238DF80B700096FEF708FBA4
:102BA0000520FEF75DF903AD20464E212A4601239C
:102BB0008DF80C800096FEF7FBFA20464E212A463F
:102BC00001238DF80C700096FEF7F2FA0A20FEF74A
:102BD00047F924200DF10D058DF80D0020464E21FA
:102BE0002A4601230096FEF7E3FA20208DF80D0017
:102BF00020464E212A4601230096FEF7D9FA2C20C2
:102C00000DF10E058DF80E0020464E212A460123B7
:102C10000096FEF7CDFA28208DF80E0020464E21B2
:102C20002A4601230096FEF7C3FA0DF10F054FF077
:102C30008C0A20464E212A4601238DF80FA00096CB
:102C4000FEF7B6FA882720464E212A4601238DF842
:102C50000F700096FEF7ACFA04AD4FF00C0820465A
:102C60004E212A4601238DF810800096FEF7A0FA27
:102C70004FF0080920464E212A4601238DF8109076
:102C80000096FEF795FA0DF1110520464E212A46D1
:102C900001238DF811A00096FEF78AFA20464E21F6
:102CA0002A4601238DF811700096FEF781FA0DF186
:102CB000120520464E212A4601238DF812800096E7
:102CC000FEF776FA20464E212A4601238DF812900F
:102CD0000096FEF76DFA1C200DF113058DF8130018
:102CE00020464E212A4601230096FEF761FA18205D
:102CF0008DF8130020464E212A4601230096FEF748
:102D000057FA0520FEF7ACF805AD20464E212A46BD
:102D100001238DF814800096FEF74AFA20464E21D2
:102D20002A4601238DF814900096FEF741FA6C2094
:102D30000DF115058DF8150020464E212A46012378
:102D40000096FEF735FA68208DF8150020464E21D2
:102D50002A4601230096FEF72BFA0DF116052046B0
:102D60004E212A4601238DF816800096FEF720FAA0
:102D700020464E212A4601238DF816900096FEF734
:102D800017FACC200DF117058DF8170020464E21BB
:102D90002A4601230096FEF70BFAC8208DF817008B
:102DA00020464E212A4601230096FEF701FA002014
:102DB00006B0BDE8F08700000178002908BF704721
:102DC0002DE9F04782B040F25814471E4FF0FF3A09
:102DD000C2F200040DF106080DF1070921F00F05FC
:102DE00005F10D000E018DF8060020464E214246E9
:102DF0000123CDF800A0FEF7DBF905F109008DF8FD
:102E0000060020464E2142460123CDF800A0FEF7E1
:102E1000CFF906F10D008DF8070020464E214A46F5
:102E20000123CDF800A0FEF7C3F906F109008DF8E3
:102E3000070020464E214A460123CDF800A0FEF7A8
:102E4000B7F9B97801370029C8D102B0BDE8F04719
:102E5000704700002DE9F04182B021A2105C40F2E1
:102E60005814084400F07006070106F18C00C2F205
:102E700000040DF106058DF806004FF0FF382046DE
:102E80004E212A460123CDF80080FEF791F906F184
:102E900088008DF8060020464E212A460123CDF8F1
:102EA0000080FEF785F907F10C000DF107058DF89C
:102EB000070020464E212A460123CDF80080FEF768
:102EC00077F907F108008DF8070020464E212A46C1
:102ED0000123CDF80080FEF76BF902B0BDE8F08168
:102EE00000400000FEE70000FEE700007047000021
:102EF00070470000FEF786BA70B592B006AC204667
:102F00003021FDF7F4FB002543F640000595CDE99F
:102F10000355CDE901550095C4F20200016802266F
:102F200041F080510160006800F0805000900098EE
:102F300047F200000095C4F20000016841F44041EE
:102F40000160006800F44040009000980120069065
:102F50004FF4803007904FF480000D9008200E90C1
:102F60004FF4A8700F900420CDE9100020460C9675
:102F7000FEF714FC10B172B6FEE700BF0F20CDE9DA
:102F800001064FF48050CDE9040501A80221039504
:102F9000FEF7F2FA10B172B6FEE700BF12B070BDD4
:102FA0004EF68850CEF20000016841F470010160D5
:102FB0007047000040F2C800C2F20000FEF78CBF6C
:102FC000B0B540F2FF7E0568C4F2000E40F2000C7E
:102FD0007045C4F2010C1DDD40F60003C4F200038D
:102FE000984220D060451ED040F60043C4F2000352
:102FF000984218D04FF6FF73C4F2000398421DDCCC
:10300000704527DCB0F1804F3CD040F20043C4F261
:10301000000335E0B0F1804F05D040F20043C4F228
:1030200000039842E6D14B6825F0700243EA02059E
:103030004FF6FF73C4F200039842E1DD44F2FF3320
:10304000C4F20103984211DC60451BD044F2000336
:1030500014E000BF40F60003C4F20003984211D010
:1030600040F60043C4F200030AE000BF44F6000348
:10307000C4F20103984205D044F20043C4F20103B4
:10308000984204D1CB6825F4407243EA02050A68ED
:103090008C684B696045C462826202D10969CCF8D0
:1030A0003010026825F0800142F0040219430260EA
:1030B000012242610160B0BDB0B50446006804F170
:1030C00008030ECB0569194325F440552A430261D4
:1030D0006269E3691143C268194349F20C639A4378
:1030E0001143C1604169A26921F4407141F200437A
:1030F000114340F48062C4F201039A42416103D15A
:10310000FEF700FB02E000BFFEF7E8FAE1694FF6C8
:103110009C7563681922C0F6FF75B1F5004FA0FBDE
:1031200002011FD15A00DB0FFDF7C6F848F21F510C
:10313000C5F2EB11A0FB01235A0905F1805302FBF4
:103140000300322303EBC000A0FB01014FF4F87031
:1031500000EA111000EB0210C1F34211084421688B
:103160008860B0BD9A009B0FFDF7A6F848F21F518A
:10317000C5F2EB11A0FB01235A0902FB0500322323
:1031800003EB0010A0FB0101F02000EA511000EB5E
:103190000210C1F34311084421688860B0BD0000EB
:1031A000FEE70000A4B040F20009C4F20209FEF7F5
:1031B00037F9FFF7A1FE002543F630002395CDE94E
:1031C0002155CDE91F551C95C4F20200016800226B
:1031D00041F00401016001684FF4087701F0040137
:1031E0001C911C991C95016841F0800101600168E7
:1031F00001F080011C911C991C95016841F00101AE
:103200000160016801F001011C911C991C95016885
:1032100041F00201016000684FF4087100F0020003
:103220001C901C984846FDF705FF09F5806840464C
:103230004FF2300100224FF23004FDF7FBFE4FF455
:1032400000501F904FF404101FAECDE9200509F582
:1032500000603146FDF718FE1F97012748463146AA
:10326000CDE920752295FDF70FFE40F207401FA91A
:10327000A1C140463146FDF707FE40463146CDE943
:103280001F47CDE92155FDF7FFFD40F2AC10A9F530
:10329000DE31C2F200000C234FF4E13280E8260058
:1032A000C0E90355C0E90535C561FEF7E9FE18B16F
:1032B00072B600BFFEE700BF40F210100123A9F56F
:1032C0006041C2F20000C0F6007322954FF48032D4
:1032D000057680F82050C0E90A35C76180F8305083
:1032E00080E82600C0E903554761FDF7B3FB18B13C
:1032F00072B600BFFEE700BF00240120CDE9200424
:1033000040F21010C2F200001FA91F94FDF7ECFA62
:1033100010B172B6FEE700BF40F25810A9F5D631E1
:10332000C2F2000048F2A0624FF48043C0F20102F2
:1033300080E81600C0E90343C0E90544C0E907443A
:10334000FDF784FE10B172B6FEE700BF40F2A80A96
:10335000C2F2000A4FF080425046002140F8202F70
:1033600042F2CF022291CDE92011CDE91C1142F2A7
:103370000F734FF48077C0E901218021C0E9033742
:103380008161FEF745FC18B172B600BFFEE700BFD1
:103390004FF480500AF120041F901FA92046FEF729
:1033A000C9FC18B172B600BFFEE700BF1CA92046D9
:1033B000FEF7E4FB10B172B6FEE700BF40F2AC17B7
:1033C000C2F200070FF22061384616224FF47A73DA
:1033D000FEF7C0FEFFF798F90FF224613846142279
:1033E0004FF47A73FEF7B6FE484620210022FDF71F
:1033F00021FE0FF22461384614224FF47A73FEF74F
:10340000A9FEFFF793FB28B102208AF8020072B6EA
:10341000FEE700BF40F2AC17C2F2000743F6F82106
:10342000C0F60001384611224FF47A73CDF830808F
:10343000FEF790FEFFF740FB00200021FFF70AFD9A
:103440000FF2EC50FFF7B8FC012000214FF001080B
:10345000FFF700FD0FF2E850FFF7AEFC0FF2F0515E
:10346000384611224FF47A73FEF774FEFDF7E8FD3B
:10347000CAF80C000FF2EC51384614224FF47A735C
:10348000FEF768FE2046FEF713FC43F6B820C0F6B0
:103490000000016840F210161B91416840F2300BA9
:1034A0001A918168C2F200061991C16800691891E9
:1034B000179043F6CC20C0F600000168C2F2000B62
:1034C00011914168109181680F91C16800690E9156
:1034D0000D9043F69430C0F6000001680B914168EE
:1034E0000A9181680991C168007C0891079043F6B0
:1034F0008030C0F60000016806914168059181683E
:103500000491C168007C0391029043F66C30C0F6D0
:103510000000016816914168159181681491C16895
:10352000007C139112901BE001200021FFF792FC18
:1035300043F61B30C0F60000FFF73EFC4FF00108D9
:1035400040F2300B40F210160020C2F2000BC2F223
:103550000006CAF80C708BF800000A20FDF780FC0A
:10356000FFF70AF9A0F14101032913D8DFE801F0C0
:103570000220141C9AF8000018B19AF800000328E1
:1035800024D140F2DC508AF80080CBF804000020FF
:1035900015E000BFD0B91EE09AF8000001283DD127
:1035A00002208AF8000011E09AF8000003280DD1EB
:1035B000002040F2DC518AF80000CBF804108AF8B1
:1035C0000300484620210022FDF734FDC8208BF877
:1035D0000080FDF745FC4C46FDF732FDDAF810108F
:1035E0008146401AB0F5FA7FC0F08D800027304642
:1035F0001FA9CDE91F78CDE92187FDF775F9304680
:10360000FDF78CFB4FF00005C0B930466421FDF793
:1036100005FB58B1002700250DE000BF9AF8000017
:10362000022804BF01208AF80000CFE73046FDF7EA
:103630000DFA074601253046FDF7F8FB0520FDF79A
:103640000FFC3046FDF76AFB60B930466421FDF798
:10365000E5FA20B93046FDF7F9F90744013530465F
:10366000FDF7E4FB0520FDF7FBFB3046FDF756FBBD
:1036700060B930466421FDF7D1FA20B93046FDF734
:10368000E5F9074401353046FDF7D0FB0520FDF78D
:10369000E7FB3046FDF742FB60B930466421FDF799
:1036A000BDFA20B93046FDF7D1F90744013530465F
:1036B000FDF7BCFB0520FDF7D3FB3046FDF72EFBE5
:1036C00060B930466421FDF7A9FA20B93046FDF70C
:1036D000BDF9074401353046FDF7A8FB0520FDF78D
:1036E000BFFB681EB84209D2B7FBF5F0CAF8140058
:1036F0009AF80200012804D1002000E001208AF895
:103700000200CAF810909AF80100A14601281FACE7
:1037100012D100208AF801009AF80300002800F076
:10372000A7809AF8040038B98AF80480FDF788FC6D
:10373000CAF81C008BF80080FDF782FC9AF8031091
:10374000022917D001292BD1044648462021012205
:10375000FDF770FCDAF81800201A1FAC64281FD39C
:10376000484620210022FDF765FC00208AF803006E
:1037700016E000BFDAF81810401A48F21F51C5F2DF
:10378000EB11A0FB0112D1094FF4C87201FB12002A
:103790002021C72848468CBF00220122FDF74AFCA1
:1037A000FDF74EFC0746002530462146CDE91F882F
:1037B000CDE92185FDF798F83046FDF7AFFA3046A0
:1037C0003221FDF72BFA30B93046FDF73FF90025DD
:1037D000962888BF01253046FDF728FB9AF804009B
:1037E00001280AD1DAF81C00381AB0F57A7F22BF16
:1037F00000208AF804008BF800809BF8000030B9A4
:10380000DAF80C00381AB0F57A7FFFF4A6AEDBF8D0
:10381000040048F68903C8F68803A0FB0302DBF81E
:1038200004109AF80000A1FB033403282CD053099C
:1038300062091201A2EB54120228A1EB82040BD000
:1038400001282DD10DF17C0B43F64232584611214F
:10385000C0F6000208E000BF0DF17C0B43F62C32ED
:1038600058461121C0F600020094FCF7B1FD24E097
:103870008AF80380FDF7E4FBCAF818009AF8040000
:1038800000283FF451AF57E71B981F901A982090DB
:103890001998219018982290179823900BE000BF58
:1038A00016981F90159820901498219013982290A4
:1038B00012988DF88C000DF17C0B00200021FFF791
:1038C000C9FA5846FFF778FA9AF8020001283FF43F
:1038D0002BAE4FF00108CDB101200021FFF7BAFA5D
:1038E00043F60A30C0F60000FFF766FA484620218A
:1038F0000122FDF79FFB4FF49670FDF7B1FA4846A1
:1039000020210022FDF796FB1AE600BF9AF800007E
:1039100003280BD111981F90109820900F98219098
:103920000E9822900D98239056E000BF9AF8000060
:1039300010B3DAF8140000097C2829D806980C9CEA
:103940001F9005982021209004980122219003982F
:10395000229002988DF88C002046FDF76BFB2046E4
:10396000102100220DF17C0BFDF764FB48464FF45B
:10397000007100222EE000BF0B981F900A98209043
:10398000099821900898229007988DF88C0023E0E0
:10399000DAF8140042F20F7343F658329842584650
:1039A0004FF01101C0F6000298BFDAF81430FCF7AE
:1039B0000FFD0C9C202120460022FDF73BFB2046FA
:1039C000102100220DF17C0BFDF734FB48464FF42B
:1039D00000710122FDF72EFB01200021FFF73AFACA
:1039E0005846FFF7E9F9ABE55374617274696E6785
:1039F000204170705F496E69742E2E2E0D0A0000F2
:103A00004B657970616420696E697469616C697A6B
:103A100065640D0A0000000042757A7A65722069BB
:103A20006E697469616C697A65640D0A0000000052
:103A30004465736B204D616E616765720000000024
:103A4000526561647920746F20537461727421002F
:103A50004C434420646973706C6179207365740D04
:103A60000A00000053797374656D20496E697469AA
:103A7000616C697A65640D0A0000000030380A281C
:103A800001D20120704700207047F1EE100A4FF676
:103A9000FF71C0F2C03120EA010040F04070E1EE59
:103AA000100A704704000008000000000000000237
:103AB000000100001000000054696D652773205557
:103AC000702120202020202000000000507265730B
:103AD00073204420746F2073746F70200000000006
:103AE00000000000000000000102030406070809AE
:103AF00000000000010203044C434420496E697435
:103B00002063616C6C65640D0A004E6F69736520FB
:103B1000416C65727421202020200053656E736F04
:103B200072204572726F72212020200050617573DF
:103B3000653A202530326C753A2530326C7520207C
:103B4000200053747564793A202530326C753A251B
:103B500030326C75202020004C696768743A204F21
:103B60004B202825346C75290000000052656164E3
:103B70007920746F20737475647920200000000030
:103B80004C696768743A20546F6F204461726B21EE
:103B9000000000005072657373204120746F207321
:103BA0007461727400000000C83B0008000000202F
:103BB00048000000FC010008103C000848000020FC
:103BC000B00700001C02000800040240000402408C
:103BD00000040240000402400004024000040240CD
:103BE0000004024000040240313233413435364291
:103BF000373839432A30234401000000DC05000037
:103C000001000000100000000024F400000000008B
:040000050800019955
:00000001FF
